:020000040000FA
:100000000C945C000C946E000C946E000C946E00CA
:100010000C946E000C946E000C946E000C946E00A8
:100020000C946E000C946E000C946E000C946E0098
:100030000C946E000C946E000C946E000C946E0088
:100040000C94BD010C946E000C946E000C946E0028
:100050000C946E000C946E000C946E000C946E0068
:100060000C946E000C946E00000000002400270029
:100070002A0000000000250028002B0004040404CE
:100080000404040402020202020203030303030342
:10009000010204081020408001020408102001021F
:1000A00004081020000000080002010000030407FB
:1000B000000000000000000011241FBECFEFD8E0B8
:1000C000DEBFCDBF21E0A0E0B1E001C01D92A131B3
:1000D000B207E1F70E9407020C9484040C9400001C
:1000E000E1EBF0E02491EDE9F0E09491E9E8F0E053
:1000F000E491EE23C9F0222339F0233001F1A8F472
:10010000213019F1223029F1F0E0EE0FFF1FEE58F7
:10011000FF4FA591B4912FB7F894EC91811126C0AF
:1001200090959E239C932FBF08952730A9F02830E7
:10013000C9F0243049F7209180002F7D03C0209121
:1001400080002F7720938000DFCF24B52F7724BD48
:10015000DBCF24B52F7DFBCF2091B0002F772093EC
:10016000B000D2CF2091B0002F7DF9CF9E2BDACFF7
:10017000CF93DF9390E0FC01E057FF4F2491845828
:100180009F4FFC0184918823D1F090E0880F991F44
:10019000FC01E859FF4FA591B491FC01EE58FF4FC7
:1001A000C591D49161110EC09FB7F8948C91E22F44
:1001B000E0958E238C932881E223E8839FBFDF9113
:1001C000CF9108958FB7F894EC91E22BEC938FBF09
:1001D000F6CF4F925F926F927F928F929F92AF92E3
:1001E000BF92CF92DF92EF92FF92CF93DF936C0199
:1001F00020910601309107018DE7829FB001839F16
:10020000700D112477FF02C0615F7F4F84E0759508
:1002100067958A95E1F7072E000C880B990B0D2C3A
:10022000000CEE08FF088090020190900301A0905E
:100230000401B09005012B013C01481859086A08D7
:100240007B08530142018C149D04AE04BF04C8F125
:100250006093020170930301809304019093050160
:100260001092070110920601A70196010E9448040E
:100270009B01AC01AFEFB0E00E946A04A7019601B8
:100280000E9448043093010120930001C0910001B5
:10029000D091010161E08DE00E94B8002097C1F487
:1002A00080E0DF91CF91FF90EF90DF90CF90BF90F3
:1002B000AF909F908F907F906F905F904F900C9435
:1002C00070002F5F3F4F3093070120930601CCCF82
:1002D000CF3FD10511F481E0E4CFE1EBF0E0E49110
:1002E000E33089F140F4E130B1F0E23039F1C03867
:1002F000D1058CF7D5CFE73081F1E830B1F1E430AA
:10030000B1F780918000806280938000D0938B0051
:10031000C0938A0004C084B5806884BDC7BDDF91E6
:10032000CF91FF90EF90DF90CF90BF90AF909F90D4
:100330008F907F906F905F904F90089584B580620A
:1003400084BDC8BDECCF8091800080688093800020
:10035000D0938900C0938800E2CF8091B00080687C
:100360008093B000C093B300DACF8091B000806278
:100370008093B000C093B400D2CF1F920F920FB6FB
:100380000F9211242F933F938F939F93AF93BF931B
:1003900080910D0190910E01A0910F01B09110017B
:1003A00030910C0123E0230F2D3758F50196A11D44
:1003B000B11D20930C0180930D0190930E01A09329
:1003C0000F01B09310018091080190910901A09153
:1003D0000A01B0910B010196A11DB11D8093080186
:1003E00090930901A0930A01B0930B01BF91AF91C3
:1003F0009F918F913F912F910F900FBE0F901F9063
:10040000189526E8230F0296A11DB11DD2CF78942E
:1004100084B5826084BD84B5816084BD85B5826009
:1004200085BD85B5816085BD80916E0081608093BA
:100430006E00109281008091810082608093810023
:100440008091810081608093810080918000816033
:10045000809380008091B10084608093B10080918E
:10046000B00081608093B00080917A0084608093B6
:100470007A0080917A00826080937A0080917A007D
:10048000816080937A0080917A00806880937A00FE
:100490001092C10060E08EE00E94B80061E08DE043
:1004A0000E94B800F894109280001092810010927F
:1004B0008500109284008CE790E0909389008093EF
:1004C0008800809181008860809381008091810004
:1004D00083608093810080916F00826080936F00C1
:1004E000789410E4C0E0D0E010937C0080917A0012
:1004F000806480937A0080917A0086FDFCCF6091C1
:10050000780070917900072E000C880B990B0E94DF
:100510004F0326EF38E24CE950E40E94DB0320E071
:1005200030E040E251E40E94A5020E9417038AEFE6
:1005300090E06E31710514F084EF91E00E94E900C3
:10054000209791F20E940000CFCF0E94B9020C9434
:10055000A1030E949A0358F00E94930340F029F4EB
:100560005F3F29F00C948A0351110C94D5030C942D
:1005700090030E94B20368F39923B1F3552391F3DA
:10058000951B550BBB27AA2762177307840738F002
:100590009F5F5F4F220F331F441FAA1FA9F335D05F
:1005A0000E2E3AF0E0E832D091505040E695001C13
:1005B000CAF72BD0FE2F29D0660F771F881FBB1FCD
:1005C000261737074807AB07B0E809F0BB0B802DAB
:1005D000BF01FF2793585F4F3AF09E3F510578F0D7
:1005E0000C948A030C94D5035F3FE4F3983ED4F354
:1005F000869577956795B795F7959F5FC9F7880FAB
:10060000911D9695879597F90895E1E0660F771FFC
:10061000881FBB1F621773078407BA0720F0621B8D
:10062000730B840BBA0BEE1F88F7E09508950E94B8
:100630001E036894B1110C94D50308950E94BA0367
:1006400088F09F5798F0B92F9927B751B0F0E1F093
:10065000660F771F881F991F1AF0BA95C9F714C043
:10066000B13091F00E94D403B1E008950C94D4030A
:10067000672F782F8827B85F39F0B93FCCF386957C
:1006800077956795B395D9F73EF4909580957095D9
:1006900061957F4F8F4F9F4F0895E89409C097FB56
:1006A0003EF490958095709561957F4F8F4F9F4F49
:1006B0009923A9F0F92F96E9BB279395F69587958D
:1006C00077956795B795F111F8CFFAF4BB0F11F450
:1006D00060FF1BC06F5F7F4F8F4F9F4F16C08823F7
:1006E00011F096E911C0772321F09EE8872F762F2D
:1006F00005C0662371F096E8862F70E060E02AF06E
:100700009A95660F771F881FDAF7880F9695879559
:1007100097F9089597F99F6780E870E060E0089581
:100720009FEF80EC089500240A9416161706180609
:100730000906089500240A941216130614060506E5
:100740000895092E0394000C11F4882352F0BB0F76
:1007500040F4BF2B11F460FF04C06F5F7F4F8F4FD9
:100760009F4F089557FD9058440F551F59F05F3F14
:1007700071F04795880F97FB991F61F09F3F79F0C3
:1007800087950895121613061406551FF2CF469545
:10079000F1DF08C0161617061806991FF1CF8695C7
:1007A0007105610508940895E894BB2766277727AB
:1007B000CB0197F908950E94EE030C94A1030E94C7
:1007C000930338F00E949A0320F0952311F00C94C3
:1007D0008A030C94900311240C94D5030E94B20355
:1007E00070F3959FC1F3950F50E0551F629FF00184
:1007F000729FBB27F00DB11D639FAA27F00DB11D9D
:10080000AA1F649F6627B00DA11D661F829F222725
:10081000B00DA11D621F739FB00DA11D621F839FAC
:10082000A00D611D221F749F3327A00D611D231F82
:10083000849F600D211D822F762F6A2F11249F57D0
:1008400050409AF0F1F088234AF0EE0FFF1FBB1FD3
:10085000661F771F881F91505040A9F79E3F510592
:1008600080F00C948A030C94D5035F3FE4F3983E28
:10087000D4F3869577956795B795F795E7959F5F3C
:10088000C1F7FE2B880F911D9695879597F90895CE
:10089000A1E21A2EAA1BBB1BFD010DC0AA1FBB1F84
:1008A000EE1FFF1FA217B307E407F50720F0A21BF6
:1008B000B30BE40BF50B661F771F881F991F1A9463
:1008C00069F760957095809590959B01AC01BD018D
:1008D000CF0108950E947504A59F900DB49F900DBF
:1008E000A49F800D911D11240895A29FB001B39F74
:1008F000C001A39F700D811D1124911DB29F700D29
:0C090000811D1124911D0895F894FFCF73
:107E0000112484B714BE81FFF0D085E080938100F7
:107E100082E08093C00088E18093C10086E0809377
:107E2000C20080E18093C4008EE0C9D0259A86E02C
:107E300020E33CEF91E0309385002093840096BBD3
:107E4000B09BFECF1D9AA8958150A9F7CC24DD24C4
:107E500088248394B5E0AB2EA1E19A2EF3E0BF2EE7
:107E6000A2D0813461F49FD0082FAFD0023811F036
:107E7000013811F484E001C083E08DD089C08234E0
:107E800011F484E103C0853419F485E0A6D080C0E4
:107E9000853579F488D0E82EFF2485D0082F10E0AE
:107EA000102F00270E291F29000F111F8ED06801E7
:107EB0006FC0863521F484E090D080E0DECF843638
:107EC00009F040C070D06FD0082F6DD080E0C81688
:107ED00080E7D80618F4F601B7BEE895C0E0D1E017
:107EE00062D089930C17E1F7F0E0CF16F0E7DF06D8
:107EF00018F0F601B7BEE89568D007B600FCFDCFD4
:107F0000A601A0E0B1E02C9130E011968C91119780
:107F100090E0982F8827822B932B1296FA010C0160
:107F200087BEE89511244E5F5F4FF1E0A038BF0790
:107F300051F7F601A7BEE89507B600FCFDCF97BE46
:107F4000E89526C08437B1F42ED02DD0F82E2BD052
:107F50003CD0F601EF2C8F010F5F1F4F84911BD097
:107F6000EA94F801C1F70894C11CD11CFA94CF0C13
:107F7000D11C0EC0853739F428D08EE10CD085E9AC
:107F80000AD08FE07ACF813511F488E018D01DD067
:107F900080E101D065CF982F8091C00085FFFCCF94
:107FA0009093C60008958091C00087FFFCCF809118
:107FB000C00084FD01C0A8958091C6000895E0E648
:107FC000F0E098E1908380830895EDDF803219F02E
:107FD00088E0F5DFFFCF84E1DECF1F93182FE3DFCA
:107FE0001150E9F7F2DF1F91089580E0E8DFEE27F6
:047FF000FF270994CA
:027FFE00040479
:00000001FF
